{
  "address": "0x7c52B55B7Fb6Ef0C7dF636F270DC7e4bA0bAeEB8",
  "abi": [
    {
      "anonymous": false,
      "inputs": [
        {
          "indexed": false,
          "internalType": "uint256",
          "name": "id",
          "type": "uint256"
        },
        {
          "indexed": false,
          "internalType": "string",
          "name": "_name",
          "type": "string"
        },
        {
          "indexed": false,
          "internalType": "address",
          "name": "_address",
          "type": "address"
        }
      ],
      "name": "ScratcherCreated",
      "type": "event"
    },
    {
      "inputs": [
        {
          "internalType": "uint64",
          "name": "chainlinkVRFSubscriptionId",
          "type": "uint64"
        },
        {
          "internalType": "string",
          "name": "name",
          "type": "string"
        },
        {
          "internalType": "string",
          "name": "symbol",
          "type": "string"
        },
        {
          "internalType": "uint256",
          "name": "price",
          "type": "uint256"
        },
        {
          "internalType": "uint256",
          "name": "totalForSale",
          "type": "uint256"
        },
        {
          "internalType": "uint64",
          "name": "maxPurchase",
          "type": "uint64"
        }
      ],
      "name": "createScratcher",
      "outputs": [
        {
          "internalType": "address",
          "name": "",
          "type": "address"
        }
      ],
      "stateMutability": "nonpayable",
      "type": "function"
    }
  ],
  "transactionHash": "0xcf1d5939d1948bb16cd993d05b7ad987cbddd0bae11aedd4428acfa8985caf69",
  "args": [],
  "numDeployments": 1,
  "solcInputHash": "ae062e76d758fa6e2b7602f9e94c28c5",
  "bytecode": "0x60806040526000805534801561001457600080fd5b50612ab0806100246000396000f3fe60806040523480156200001157600080fd5b50600436106200002e5760003560e01c80630d0acb041462000033575b600080fd5b6200004a620000443660046200025d565b62000066565b6040516001600160a01b03909116815260200160405180910390f35b600080878787878787336040516200007e9062000186565b62000090979695949392919062000347565b604051809103906000f080158015620000ad573d6000803e3d6000fd5b5060408051606081018252600080548083526001600160a01b0385811660208086019182528587018f81529385526001908190529590932084518155925194830180546001600160a01b031916959091169490941790935591519293508392909190600282019062000120908262000443565b509050507fe951d60bc3c851b4e37d2f253eed8dccdef353b3234d396c15aa5b23871036b160005489836040516200015b9392919062000510565b60405180910390a1600080549080620001748362000543565b90915550909998505050505050505050565b61250f806200056c83390190565b803567ffffffffffffffff81168114620001ad57600080fd5b919050565b634e487b7160e01b600052604160045260246000fd5b600082601f830112620001da57600080fd5b813567ffffffffffffffff80821115620001f857620001f8620001b2565b604051601f8301601f19908116603f01168101908282118183101715620002235762000223620001b2565b816040528381528660208588010111156200023d57600080fd5b836020870160208301376000602085830101528094505050505092915050565b60008060008060008060c087890312156200027757600080fd5b620002828762000194565b9550602087013567ffffffffffffffff80821115620002a057600080fd5b620002ae8a838b01620001c8565b96506040890135915080821115620002c557600080fd5b50620002d489828a01620001c8565b9450506060870135925060808701359150620002f360a0880162000194565b90509295509295509295565b6000815180845260005b81811015620003275760208185018101518683018201520162000309565b506000602082860101526020601f19601f83011685010191505092915050565b600067ffffffffffffffff808a16835260e060208401526200036d60e084018a620002ff565b838103604085015262000381818a620002ff565b6060850198909852506080830195909552509190921660a08201526001600160a01b0390911660c0909101529392505050565b600181811c90821680620003c957607f821691505b602082108103620003ea57634e487b7160e01b600052602260045260246000fd5b50919050565b601f8211156200043e57600081815260208120601f850160051c81016020861015620004195750805b601f850160051c820191505b818110156200043a5782815560010162000425565b5050505b505050565b815167ffffffffffffffff811115620004605762000460620001b2565b6200047881620004718454620003b4565b84620003f0565b602080601f831160018114620004b05760008415620004975750858301515b600019600386901b1c1916600185901b1785556200043a565b600085815260208120601f198616915b82811015620004e157888601518255948401946001909101908401620004c0565b5085821015620005005787850151600019600388901b60f8161c191681555b5050505050600190811b01905550565b8381526060602082015260006200052b6060830185620002ff565b905060018060a01b0383166040830152949350505050565b6000600182016200056457634e487b7160e01b600052601160045260246000fd5b506001019056fe60a06040526000600781905560088190556009819055600d557f027f94ff1465b3525f9fc03e9ff7d6d2c0953482246dd6ae07570c45d6631414601655601780546001600160501b03191666010003017d78401790553480156200006257600080fd5b506040516200250f3803806200250f83398101604081905262000085916200023b565b732ed832ba664535e5886b75d64c46eb9a228c261086866000620000aa838262000390565b506001620000b9828262000390565b5050506001600160a01b0316608052620000d33362000107565b5050601380546001600160a01b0319167350d47e4142598e3411aa864e08a44284e471ac6f179055506200045c9350505050565b600680546001600160a01b038381166001600160a01b0319831681179093556040519116919082907f8be0079c531659141344cd1fd0a4f28419497f9722a3daafe3b4186f6b6457e090600090a35050565b80516001600160401b03811681146200017157600080fd5b919050565b634e487b7160e01b600052604160045260246000fd5b600082601f8301126200019e57600080fd5b81516001600160401b0380821115620001bb57620001bb62000176565b604051601f8301601f19908116603f01168101908282118183101715620001e657620001e662000176565b816040528381526020925086838588010111156200020357600080fd5b600091505b8382101562000227578582018301518183018401529082019062000208565b600093810190920192909252949350505050565b600080600080600080600060e0888a0312156200025757600080fd5b620002628862000159565b60208901519097506001600160401b03808211156200028057600080fd5b6200028e8b838c016200018c565b975060408a0151915080821115620002a557600080fd5b50620002b48a828b016200018c565b9550506060880151935060808801519250620002d360a0890162000159565b60c08901519092506001600160a01b0381168114620002f157600080fd5b8091505092959891949750929550565b600181811c908216806200031657607f821691505b6020821081036200033757634e487b7160e01b600052602260045260246000fd5b50919050565b601f8211156200038b57600081815260208120601f850160051c81016020861015620003665750805b601f850160051c820191505b81811015620003875782815560010162000372565b5050505b505050565b81516001600160401b03811115620003ac57620003ac62000176565b620003c481620003bd845462000301565b846200033d565b602080601f831160018114620003fc5760008415620003e35750858301515b600019600386901b1c1916600185901b17855562000387565b600085815260208120601f198616915b828110156200042d578886015182559484019460019091019084016200040c565b50858210156200044c5787850151600019600388901b60f8161c191681555b5050505050600190811b01905550565b6080516120906200047f6000396000818161086601526108a801526120906000f3fe6080604052600436106101d85760003560e01c8063715018a611610102578063b88d4fde11610095578063e985e9c511610064578063e985e9c5146105cb578063f24f069d146105eb578063f2fde38b14610600578063fc2a88c31461062057600080fd5b8063b88d4fde1461056d578063c6c4676c1461058d578063c87b56dd146105a3578063e676a775146105c357600080fd5b80638da5cb5b116100d15780638da5cb5b146104bc57806395d89b41146104da578063a168fa89146104ef578063a22cb4651461054d57600080fd5b8063715018a61461043e5780638796ba8c1461045357806388b2f7c3146104735780638ac000211461047b57600080fd5b806332f276ec1161017a578063530c3dae11610149578063530c3dae146103a75780635400b3d1146103d75780636352211e146103fe57806370a082311461041e57600080fd5b806332f276ec1461032357806337a6096a1461034757806342842e0e1461036757806342966c681461038757600080fd5b8063095ea7b3116101b6578063095ea7b31461026c5780630cbcd09d1461028e5780631fe543e3146102e357806323b872dd1461030357600080fd5b806301ffc9a7146101dd57806306fdde0314610212578063081812fc14610234575b600080fd5b3480156101e957600080fd5b506101fd6101f8366004611a5d565b610636565b60405190151581526020015b60405180910390f35b34801561021e57600080fd5b50610227610688565b6040516102099190611aca565b34801561024057600080fd5b5061025461024f366004611add565b61071a565b6040516001600160a01b039091168152602001610209565b34801561027857600080fd5b5061028c610287366004611b12565b610741565b005b34801561029a57600080fd5b506102ce6102a9366004611add565b6000908152601060209081526040808320548084526012909252909120600101549091565b60408051928352602083019190915201610209565b3480156102ef57600080fd5b5061028c6102fe366004611b83565b61085b565b34801561030f57600080fd5b5061028c61031e366004611c35565b6108e3565b34801561032f57600080fd5b5061033960001981565b604051908152602001610209565b34801561035357600080fd5b5061028c610362366004611add565b610915565b34801561037357600080fd5b5061028c610382366004611c35565b610a22565b34801561039357600080fd5b5061028c6103a2366004611add565b610a3d565b3480156103b357600080fd5b506101fd6103c2366004611add565b6000908152600f602052604090205460ff1690565b3480156103e357600080fd5b506103ec601881565b60405160ff9091168152602001610209565b34801561040a57600080fd5b50610254610419366004611add565b610a6e565b34801561042a57600080fd5b50610339610439366004611c71565b610ace565b34801561044a57600080fd5b5061028c610b54565b34801561045f57600080fd5b5061033961046e366004611add565b610b68565b61028c610b89565b34801561048757600080fd5b506013546104a390600160a01b900467ffffffffffffffff1681565b60405167ffffffffffffffff9091168152602001610209565b3480156104c857600080fd5b506006546001600160a01b0316610254565b3480156104e657600080fd5b50610227610baa565b3480156104fb57600080fd5b5061053061050a366004611add565b6012602052600090815260409020805460019091015460ff808316926101009004169083565b604080519315158452911515602084015290820152606001610209565b34801561055957600080fd5b5061028c610568366004611c8c565b610bb9565b34801561057957600080fd5b5061028c610588366004611cc8565b610bc4565b34801561059957600080fd5b5061033960185481565b3480156105af57600080fd5b506102276105be366004611add565b610bfc565b61028c610c70565b3480156105d757600080fd5b506101fd6105e6366004611d88565b610dfb565b3480156105f757600080fd5b50600754610339565b34801561060c57600080fd5b5061028c61061b366004611c71565b610e29565b34801561062c57600080fd5b5061033960155481565b60006001600160e01b031982166380ac58cd60e01b148061066757506001600160e01b03198216635b5e139f60e01b145b8061068257506301ffc9a760e01b6001600160e01b03198316145b92915050565b60606000805461069790611dbb565b80601f01602080910402602001604051908101604052809291908181526020018280546106c390611dbb565b80156107105780601f106106e557610100808354040283529160200191610710565b820191906000526020600020905b8154815290600101906020018083116106f357829003601f168201915b5050505050905090565b600061072582610e9f565b506000908152600460205260409020546001600160a01b031690565b600061074c82610a6e565b9050806001600160a01b0316836001600160a01b0316036107be5760405162461bcd60e51b815260206004820152602160248201527f4552433732313a20617070726f76616c20746f2063757272656e74206f776e656044820152603960f91b60648201526084015b60405180910390fd5b336001600160a01b03821614806107da57506107da8133610dfb565b61084c5760405162461bcd60e51b815260206004820152603d60248201527f4552433732313a20617070726f76652063616c6c6572206973206e6f7420746f60448201527f6b656e206f776e6572206f7220617070726f76656420666f7220616c6c00000060648201526084016107b5565b6108568383610efe565b505050565b336001600160a01b037f000000000000000000000000000000000000000000000000000000000000000016146108d55760405163073e64fd60e21b81523360048201526001600160a01b037f00000000000000000000000000000000000000000000000000000000000000001660248201526044016107b5565b6108df8282610f6c565b5050565b6108ee335b8261105f565b61090a5760405162461bcd60e51b81526004016107b590611df5565b6108568383836110be565b6000818152600f602052604090205460ff16156109745760405162461bcd60e51b815260206004820152601a60248201527f416c7265616479207363726174636865642074686973206f6e6500000000000060448201526064016107b5565b3361097e82610a6e565b6001600160a01b0316146109d45760405162461bcd60e51b815260206004820152601a60248201527f4e6f7420746865206f776e6572206f662073637261746368657200000000000060448201526064016107b5565b6109dc611222565b600082815260106020908152604080832093909355600f905220805460ff19166001179055610a0a816113bc565b60098054906000610a1a83611e58565b919050555050565b61085683838360405180602001604052806000815250610bc4565b610a46336108e8565b610a625760405162461bcd60e51b81526004016107b590611df5565b610a6b816113bc565b50565b6000818152600260205260408120546001600160a01b0316806106825760405162461bcd60e51b8152602060048201526018602482015277115490cdcc8c4e881a5b9d985b1a59081d1bdad95b88125160421b60448201526064016107b5565b60006001600160a01b038216610b385760405162461bcd60e51b815260206004820152602960248201527f4552433732313a2061646472657373207a65726f206973206e6f7420612076616044820152683634b21037bbb732b960b91b60648201526084016107b5565b506001600160a01b031660009081526003602052604090205490565b610b5c611451565b610b6660006114ab565b565b60148181548110610b7857600080fd5b600091825260209091200154905081565b610b91611451565b3460076000828254610ba39190611e6f565b9091555050565b60606001805461069790611dbb565b6108df3383836114fd565b610bce338361105f565b610bea5760405162461bcd60e51b81526004016107b590611df5565b610bf6848484846115cb565b50505050565b6060610c0782610e9f565b6000610c1e60408051602081019091526000815290565b90506000815111610c3e5760405180602001604052806000815250610c69565b80610c48846115fe565b604051602001610c59929190611e82565b6040516020818303038152906040525b9392505050565b600a54341015610cba5760405162461bcd60e51b8152602060048201526015602482015274139bdd08195b9bdd59da08199d5b991cc81cd95b9d605a1b60448201526064016107b5565b600c54600d5410610cfb5760405162461bcd60e51b815260206004820152600b60248201526a536f6c64204f757421212160a81b60448201526064016107b5565b600b54336000908152600e602052604090205467ffffffffffffffff90911611610d605760405162461bcd60e51b815260206004820152601660248201527514995858da1959081c1d5c98da185cd9481b1a5b5a5d60521b60448201526064016107b5565b610d6c33600854611691565b600880546000908152600f60205260408120805460ff1916905581549190610d9383611eb1565b909155505060098054906000610da883611eb1565b9091555050336000908152600e60205260408120805491610dc883611eb1565b91905055503460076000828254610ddf9190611e6f565b9091555050600d8054906000610df483611eb1565b9190505550565b6001600160a01b03918216600090815260056020908152604080832093909416825291909152205460ff1690565b610e31611451565b6001600160a01b038116610e965760405162461bcd60e51b815260206004820152602660248201527f4f776e61626c653a206e6577206f776e657220697320746865207a65726f206160448201526564647265737360d01b60648201526084016107b5565b610a6b816114ab565b6000818152600260205260409020546001600160a01b0316610a6b5760405162461bcd60e51b8152602060048201526018602482015277115490cdcc8c4e881a5b9d985b1a59081d1bdad95b88125160421b60448201526064016107b5565b600081815260046020526040902080546001600160a01b0319166001600160a01b0384169081179091558190610f3382610a6e565b6001600160a01b03167f8c5be1e5ebec7d5bd14f71427d1e84f3dd0314c0f7b2291e5b200ac8c7c3b92560405160405180910390a45050565b600082815260126020526040902054610100900460ff16610fc35760405162461bcd60e51b81526020600482015260116024820152701c995c5d595cdd081b9bdd08199bdd5b99607a1b60448201526064016107b5565b6000828152601260205260408120805460ff1916600117905581516064918391610fef57610fef611eca565b60200260200101516110019190611ee0565b61100c906001611e6f565b6000838152601260205260409081902060010191909155517ffe2e2d779dba245964d4e3ef9b994be63856fd568bf7d3ca9e224755cb1bd54d906110539084908490611f02565b60405180910390a15050565b60008061106b83610a6e565b9050806001600160a01b0316846001600160a01b0316148061109257506110928185610dfb565b806110b65750836001600160a01b03166110ab8461071a565b6001600160a01b0316145b949350505050565b826001600160a01b03166110d182610a6e565b6001600160a01b0316146110f75760405162461bcd60e51b81526004016107b590611f50565b6001600160a01b0382166111595760405162461bcd60e51b8152602060048201526024808201527f4552433732313a207472616e7366657220746f20746865207a65726f206164646044820152637265737360e01b60648201526084016107b5565b826001600160a01b031661116c82610a6e565b6001600160a01b0316146111925760405162461bcd60e51b81526004016107b590611f50565b600081815260046020908152604080832080546001600160a01b03199081169091556001600160a01b0387811680865260038552838620805460001901905590871680865283862080546001019055868652600290945282852080549092168417909155905184937fddf252ad1be2c89b69c2b068fc378daa952ba7f163c4a11628f55a4df523b3ef91a4505050565b6013546016546017546040516305d3b1d360e41b81526004810192909252600160a01b830467ffffffffffffffff166024830152640100000000810461ffff16604483015263ffffffff808216606484015266010000000000009091041660848201526000916001600160a01b031690635d3b1d309060a4016020604051808303816000875af11580156112ba573d6000803e3d6000fd5b505050506040513d601f19601f820116820180604052508101906112de9190611f95565b604080516060810182526000808252600160208084018281528486018481528785526012835286852095518654925161ffff1990931690151561ff001916176101009215159290920291909117855551938201939093556014805491820181559091527fce6d7b5282bd9a3661ae061feed1dbda4e52ab073b1f9285be6e155d9c38d4ec0183905560158390556017548251848152660100000000000090910463ffffffff16918101919091529192507fcc58b13ad3eab50626c6a6300b1d139cd6ebb1688a7cced9461c2f7e762665ee910160405180910390a190565b60006113c782610a6e565b90506113d282610a6e565b600083815260046020908152604080832080546001600160a01b03199081169091556001600160a01b0385168085526003845282852080546000190190558785526002909352818420805490911690555192935084927fddf252ad1be2c89b69c2b068fc378daa952ba7f163c4a11628f55a4df523b3ef908390a45050565b6006546001600160a01b03163314610b665760405162461bcd60e51b815260206004820181905260248201527f4f776e61626c653a2063616c6c6572206973206e6f7420746865206f776e657260448201526064016107b5565b600680546001600160a01b038381166001600160a01b0319831681179093556040519116919082907f8be0079c531659141344cd1fd0a4f28419497f9722a3daafe3b4186f6b6457e090600090a35050565b816001600160a01b0316836001600160a01b03160361155e5760405162461bcd60e51b815260206004820152601960248201527f4552433732313a20617070726f766520746f2063616c6c65720000000000000060448201526064016107b5565b6001600160a01b03838116600081815260056020908152604080832094871680845294825291829020805460ff191686151590811790915591519182527f17307eab39ab6107e8899845ad3d59bd9653f200f220920489ca2b5937696c31910160405180910390a3505050565b6115d68484846110be565b6115e28484848461169b565b610bf65760405162461bcd60e51b81526004016107b590611fae565b6060600061160b8361179c565b600101905060008167ffffffffffffffff81111561162b5761162b611b3c565b6040519080825280601f01601f191660200182016040528015611655576020820181803683370190505b5090508181016020015b600019016f181899199a1a9b1b9c1cb0b131b232b360811b600a86061a8153600a850494508461165f57509392505050565b6108df8282611874565b60006001600160a01b0384163b1561179157604051630a85bd0160e11b81526001600160a01b0385169063150b7a02906116df903390899088908890600401612000565b6020604051808303816000875af192505050801561171a575060408051601f3d908101601f191682019092526117179181019061203d565b60015b611777573d808015611748576040519150601f19603f3d011682016040523d82523d6000602084013e61174d565b606091505b50805160000361176f5760405162461bcd60e51b81526004016107b590611fae565b805181602001fd5b6001600160e01b031916630a85bd0160e11b1490506110b6565b506001949350505050565b60008072184f03e93ff9f4daa797ed6e38ed64bf6a1f0160401b83106117db5772184f03e93ff9f4daa797ed6e38ed64bf6a1f0160401b830492506040015b6d04ee2d6d415b85acef81000000008310611807576d04ee2d6d415b85acef8100000000830492506020015b662386f26fc10000831061182557662386f26fc10000830492506010015b6305f5e100831061183d576305f5e100830492506008015b612710831061185157612710830492506004015b60648310611863576064830492506002015b600a83106106825760010192915050565b6108df82826040518060200160405280600081525061189383836118bc565b6118a0600084848461169b565b6108565760405162461bcd60e51b81526004016107b590611fae565b6001600160a01b0382166119125760405162461bcd60e51b815260206004820181905260248201527f4552433732313a206d696e7420746f20746865207a65726f206164647265737360448201526064016107b5565b6000818152600260205260409020546001600160a01b0316156119775760405162461bcd60e51b815260206004820152601c60248201527f4552433732313a20746f6b656e20616c7265616479206d696e7465640000000060448201526064016107b5565b6000818152600260205260409020546001600160a01b0316156119dc5760405162461bcd60e51b815260206004820152601c60248201527f4552433732313a20746f6b656e20616c7265616479206d696e7465640000000060448201526064016107b5565b6001600160a01b038216600081815260036020908152604080832080546001019055848352600290915280822080546001600160a01b0319168417905551839291907fddf252ad1be2c89b69c2b068fc378daa952ba7f163c4a11628f55a4df523b3ef908290a45050565b6001600160e01b031981168114610a6b57600080fd5b600060208284031215611a6f57600080fd5b8135610c6981611a47565b60005b83811015611a95578181015183820152602001611a7d565b50506000910152565b60008151808452611ab6816020860160208601611a7a565b601f01601f19169290920160200192915050565b602081526000610c696020830184611a9e565b600060208284031215611aef57600080fd5b5035919050565b80356001600160a01b0381168114611b0d57600080fd5b919050565b60008060408385031215611b2557600080fd5b611b2e83611af6565b946020939093013593505050565b634e487b7160e01b600052604160045260246000fd5b604051601f8201601f1916810167ffffffffffffffff81118282101715611b7b57611b7b611b3c565b604052919050565b60008060408385031215611b9657600080fd5b8235915060208084013567ffffffffffffffff80821115611bb657600080fd5b818601915086601f830112611bca57600080fd5b813581811115611bdc57611bdc611b3c565b8060051b9150611bed848301611b52565b8181529183018401918481019089841115611c0757600080fd5b938501935b83851015611c2557843582529385019390850190611c0c565b8096505050505050509250929050565b600080600060608486031215611c4a57600080fd5b611c5384611af6565b9250611c6160208501611af6565b9150604084013590509250925092565b600060208284031215611c8357600080fd5b610c6982611af6565b60008060408385031215611c9f57600080fd5b611ca883611af6565b915060208301358015158114611cbd57600080fd5b809150509250929050565b60008060008060808587031215611cde57600080fd5b611ce785611af6565b93506020611cf6818701611af6565b935060408601359250606086013567ffffffffffffffff80821115611d1a57600080fd5b818801915088601f830112611d2e57600080fd5b813581811115611d4057611d40611b3c565b611d52601f8201601f19168501611b52565b91508082528984828501011115611d6857600080fd5b808484018584013760008482840101525080935050505092959194509250565b60008060408385031215611d9b57600080fd5b611da483611af6565b9150611db260208401611af6565b90509250929050565b600181811c90821680611dcf57607f821691505b602082108103611def57634e487b7160e01b600052602260045260246000fd5b50919050565b6020808252602d908201527f4552433732313a2063616c6c6572206973206e6f7420746f6b656e206f776e6560408201526c1c881bdc88185c1c1c9bdd9959609a1b606082015260800190565b634e487b7160e01b600052601160045260246000fd5b600081611e6757611e67611e42565b506000190190565b8082018082111561068257610682611e42565b60008351611e94818460208801611a7a565b835190830190611ea8818360208801611a7a565b01949350505050565b600060018201611ec357611ec3611e42565b5060010190565b634e487b7160e01b600052603260045260246000fd5b600082611efd57634e487b7160e01b600052601260045260246000fd5b500690565b6000604082018483526020604081850152818551808452606086019150828701935060005b81811015611f4357845183529383019391830191600101611f27565b5090979650505050505050565b60208082526025908201527f4552433732313a207472616e736665722066726f6d20696e636f72726563742060408201526437bbb732b960d91b606082015260800190565b600060208284031215611fa757600080fd5b5051919050565b60208082526032908201527f4552433732313a207472616e7366657220746f206e6f6e20455243373231526560408201527131b2b4bb32b91034b6b83632b6b2b73a32b960711b606082015260800190565b6001600160a01b038581168252841660208201526040810183905260806060820181905260009061203390830184611a9e565b9695505050505050565b60006020828403121561204f57600080fd5b8151610c6981611a4756fea2646970667358221220bc58139e712f0175afebd0da6c6c27ff507ae5b7f5557774153a8fdedef7091264736f6c63430008110033a2646970667358221220e0ae64185dee7928ae538b28bdda5fde69291d9fbe20cf687db9adb6c52ec21564736f6c63430008110033",
  "devdoc": {
    "kind": "dev",
    "methods": {},
    "version": 1
  },
  "userdoc": {
    "kind": "user",
    "methods": {},
    "version": 1
  },
  "storageLayout": {
    "storage": [
      {
        "astId": 5015,
        "contract": "contracts/ScratcherFactory.sol:ScratcherFactory",
        "label": "nextScratcherId",
        "offset": 0,
        "slot": "0",
        "type": "t_uint256"
      },
      {
        "astId": 5027,
        "contract": "contracts/ScratcherFactory.sol:ScratcherFactory",
        "label": "scratcherAddresses",
        "offset": 0,
        "slot": "1",
        "type": "t_mapping(t_uint256,t_struct(ScratcherInfo)5022_storage)"
      }
    ],
    "types": {
      "t_address": {
        "encoding": "inplace",
        "label": "address",
        "numberOfBytes": "20"
      },
      "t_mapping(t_uint256,t_struct(ScratcherInfo)5022_storage)": {
        "encoding": "mapping",
        "key": "t_uint256",
        "label": "mapping(uint256 => struct ScratcherFactory.ScratcherInfo)",
        "numberOfBytes": "32",
        "value": "t_struct(ScratcherInfo)5022_storage"
      },
      "t_string_storage": {
        "encoding": "bytes",
        "label": "string",
        "numberOfBytes": "32"
      },
      "t_struct(ScratcherInfo)5022_storage": {
        "encoding": "inplace",
        "label": "struct ScratcherFactory.ScratcherInfo",
        "members": [
          {
            "astId": 5017,
            "contract": "contracts/ScratcherFactory.sol:ScratcherFactory",
            "label": "id",
            "offset": 0,
            "slot": "0",
            "type": "t_uint256"
          },
          {
            "astId": 5019,
            "contract": "contracts/ScratcherFactory.sol:ScratcherFactory",
            "label": "scratcherAddress",
            "offset": 0,
            "slot": "1",
            "type": "t_address"
          },
          {
            "astId": 5021,
            "contract": "contracts/ScratcherFactory.sol:ScratcherFactory",
            "label": "name",
            "offset": 0,
            "slot": "2",
            "type": "t_string_storage"
          }
        ],
        "numberOfBytes": "96"
      },
      "t_uint256": {
        "encoding": "inplace",
        "label": "uint256",
        "numberOfBytes": "32"
      }
    }
  }
}