{
  "address": "0xAF42261A20Dc05070b814ebBd4A79f52AA73aD61",
  "abi": [
    {
      "inputs": [],
      "stateMutability": "nonpayable",
      "type": "constructor"
    },
    {
      "inputs": [],
      "name": "inf",
      "outputs": [
        {
          "internalType": "uint256",
          "name": "",
          "type": "uint256"
        }
      ],
      "stateMutability": "view",
      "type": "function"
    },
    {
      "inputs": [],
      "name": "nonlinearity",
      "outputs": [
        {
          "internalType": "uint8",
          "name": "",
          "type": "uint8"
        }
      ],
      "stateMutability": "view",
      "type": "function"
    }
  ],
  "transactionHash": "0x51abf977db7e202d97557f60f6ef472c231057c673a8f6f2da9c27a00c4bc566",
  "args": [],
  "numDeployments": 1,
  "solcInputHash": "ae062e76d758fa6e2b7602f9e94c28c5",
  "bytecode": "0x6080604052348015600f57600080fd5b506000805460ff1916601917905560001960015560a5806100316000396000f3fe6080604052348015600f57600080fd5b506004361060325760003560e01c806332f276ec1460375780635400b3d1146052575b600080fd5b603f60015481565b6040519081526020015b60405180910390f35b600054605e9060ff1681565b60405160ff9091168152602001604956fea26469706673582212206f2d7b51a0edec2937988c1adb86fbbf954e6fb967317b482c81b39fbf25896a64736f6c63430008110033",
  "devdoc": {
    "kind": "dev",
    "methods": {},
    "version": 1
  },
  "userdoc": {
    "kind": "user",
    "methods": {},
    "notice": "A smart contract that allows changing a state variable of the contract and tracking the changes It also allows the owner to withdraw the Ether in the contract",
    "version": 1
  },
  "storageLayout": {
    "storage": [
      {
        "astId": 5104,
        "contract": "contracts/YourContract.sol:YourContract",
        "label": "nonlinearity",
        "offset": 0,
        "slot": "0",
        "type": "t_uint8"
      },
      {
        "astId": 5106,
        "contract": "contracts/YourContract.sol:YourContract",
        "label": "inf",
        "offset": 0,
        "slot": "1",
        "type": "t_uint256"
      }
    ],
    "types": {
      "t_uint256": {
        "encoding": "inplace",
        "label": "uint256",
        "numberOfBytes": "32"
      },
      "t_uint8": {
        "encoding": "inplace",
        "label": "uint8",
        "numberOfBytes": "1"
      }
    }
  }
}