{
  "_format": "hh-sol-artifact-1",
  "contractName": "Scratcher",
  "sourceName": "contracts/Scratcher.sol",
  "abi": [
    {
      "inputs": [
        {
          "internalType": "address",
          "name": "initialOwner",
          "type": "address"
        }
      ],
      "stateMutability": "nonpayable",
      "type": "constructor"
    },
    {
      "inputs": [
        {
          "internalType": "address",
          "name": "sender",
          "type": "address"
        },
        {
          "internalType": "uint256",
          "name": "balance",
          "type": "uint256"
        },
        {
          "internalType": "uint256",
          "name": "needed",
          "type": "uint256"
        },
        {
          "internalType": "uint256",
          "name": "tokenId",
          "type": "uint256"
        }
      ],
      "name": "ERC1155InsufficientBalance",
      "type": "error"
    },
    {
      "inputs": [
        {
          "internalType": "address",
          "name": "approver",
          "type": "address"
        }
      ],
      "name": "ERC1155InvalidApprover",
      "type": "error"
    },
    {
      "inputs": [
        {
          "internalType": "uint256",
          "name": "idsLength",
          "type": "uint256"
        },
        {
          "internalType": "uint256",
          "name": "valuesLength",
          "type": "uint256"
        }
      ],
      "name": "ERC1155InvalidArrayLength",
      "type": "error"
    },
    {
      "inputs": [
        {
          "internalType": "address",
          "name": "operator",
          "type": "address"
        }
      ],
      "name": "ERC1155InvalidOperator",
      "type": "error"
    },
    {
      "inputs": [
        {
          "internalType": "address",
          "name": "receiver",
          "type": "address"
        }
      ],
      "name": "ERC1155InvalidReceiver",
      "type": "error"
    },
    {
      "inputs": [
        {
          "internalType": "address",
          "name": "sender",
          "type": "address"
        }
      ],
      "name": "ERC1155InvalidSender",
      "type": "error"
    },
    {
      "inputs": [
        {
          "internalType": "address",
          "name": "operator",
          "type": "address"
        },
        {
          "internalType": "address",
          "name": "owner",
          "type": "address"
        }
      ],
      "name": "ERC1155MissingApprovalForAll",
      "type": "error"
    },
    {
      "inputs": [
        {
          "internalType": "address",
          "name": "owner",
          "type": "address"
        }
      ],
      "name": "OwnableInvalidOwner",
      "type": "error"
    },
    {
      "inputs": [
        {
          "internalType": "address",
          "name": "account",
          "type": "address"
        }
      ],
      "name": "OwnableUnauthorizedAccount",
      "type": "error"
    },
    {
      "anonymous": false,
      "inputs": [
        {
          "indexed": true,
          "internalType": "address",
          "name": "account",
          "type": "address"
        },
        {
          "indexed": true,
          "internalType": "address",
          "name": "operator",
          "type": "address"
        },
        {
          "indexed": false,
          "internalType": "bool",
          "name": "approved",
          "type": "bool"
        }
      ],
      "name": "ApprovalForAll",
      "type": "event"
    },
    {
      "anonymous": false,
      "inputs": [
        {
          "indexed": true,
          "internalType": "address",
          "name": "previousOwner",
          "type": "address"
        },
        {
          "indexed": true,
          "internalType": "address",
          "name": "newOwner",
          "type": "address"
        }
      ],
      "name": "OwnershipTransferred",
      "type": "event"
    },
    {
      "anonymous": false,
      "inputs": [
        {
          "indexed": true,
          "internalType": "address",
          "name": "operator",
          "type": "address"
        },
        {
          "indexed": true,
          "internalType": "address",
          "name": "from",
          "type": "address"
        },
        {
          "indexed": true,
          "internalType": "address",
          "name": "to",
          "type": "address"
        },
        {
          "indexed": false,
          "internalType": "uint256[]",
          "name": "ids",
          "type": "uint256[]"
        },
        {
          "indexed": false,
          "internalType": "uint256[]",
          "name": "values",
          "type": "uint256[]"
        }
      ],
      "name": "TransferBatch",
      "type": "event"
    },
    {
      "anonymous": false,
      "inputs": [
        {
          "indexed": true,
          "internalType": "address",
          "name": "operator",
          "type": "address"
        },
        {
          "indexed": true,
          "internalType": "address",
          "name": "from",
          "type": "address"
        },
        {
          "indexed": true,
          "internalType": "address",
          "name": "to",
          "type": "address"
        },
        {
          "indexed": false,
          "internalType": "uint256",
          "name": "id",
          "type": "uint256"
        },
        {
          "indexed": false,
          "internalType": "uint256",
          "name": "value",
          "type": "uint256"
        }
      ],
      "name": "TransferSingle",
      "type": "event"
    },
    {
      "anonymous": false,
      "inputs": [
        {
          "indexed": false,
          "internalType": "string",
          "name": "value",
          "type": "string"
        },
        {
          "indexed": true,
          "internalType": "uint256",
          "name": "id",
          "type": "uint256"
        }
      ],
      "name": "URI",
      "type": "event"
    },
    {
      "inputs": [
        {
          "internalType": "address",
          "name": "account",
          "type": "address"
        },
        {
          "internalType": "uint256",
          "name": "id",
          "type": "uint256"
        }
      ],
      "name": "balanceOf",
      "outputs": [
        {
          "internalType": "uint256",
          "name": "",
          "type": "uint256"
        }
      ],
      "stateMutability": "view",
      "type": "function"
    },
    {
      "inputs": [
        {
          "internalType": "address[]",
          "name": "accounts",
          "type": "address[]"
        },
        {
          "internalType": "uint256[]",
          "name": "ids",
          "type": "uint256[]"
        }
      ],
      "name": "balanceOfBatch",
      "outputs": [
        {
          "internalType": "uint256[]",
          "name": "",
          "type": "uint256[]"
        }
      ],
      "stateMutability": "view",
      "type": "function"
    },
    {
      "inputs": [],
      "name": "buyScratcher",
      "outputs": [],
      "stateMutability": "payable",
      "type": "function"
    },
    {
      "inputs": [
        {
          "internalType": "address",
          "name": "account",
          "type": "address"
        },
        {
          "internalType": "address",
          "name": "operator",
          "type": "address"
        }
      ],
      "name": "isApprovedForAll",
      "outputs": [
        {
          "internalType": "bool",
          "name": "",
          "type": "bool"
        }
      ],
      "stateMutability": "view",
      "type": "function"
    },
    {
      "inputs": [
        {
          "internalType": "uint256",
          "name": "id",
          "type": "uint256"
        }
      ],
      "name": "isScratched",
      "outputs": [
        {
          "internalType": "bool",
          "name": "",
          "type": "bool"
        }
      ],
      "stateMutability": "view",
      "type": "function"
    },
    {
      "inputs": [
        {
          "internalType": "address",
          "name": "to",
          "type": "address"
        },
        {
          "internalType": "uint256[]",
          "name": "ids",
          "type": "uint256[]"
        },
        {
          "internalType": "uint256[]",
          "name": "amounts",
          "type": "uint256[]"
        },
        {
          "internalType": "bytes",
          "name": "data",
          "type": "bytes"
        }
      ],
      "name": "mintBatch",
      "outputs": [],
      "stateMutability": "nonpayable",
      "type": "function"
    },
    {
      "inputs": [],
      "name": "owner",
      "outputs": [
        {
          "internalType": "address",
          "name": "",
          "type": "address"
        }
      ],
      "stateMutability": "view",
      "type": "function"
    },
    {
      "inputs": [],
      "name": "renounceOwnership",
      "outputs": [],
      "stateMutability": "nonpayable",
      "type": "function"
    },
    {
      "inputs": [
        {
          "internalType": "address",
          "name": "from",
          "type": "address"
        },
        {
          "internalType": "address",
          "name": "to",
          "type": "address"
        },
        {
          "internalType": "uint256[]",
          "name": "ids",
          "type": "uint256[]"
        },
        {
          "internalType": "uint256[]",
          "name": "values",
          "type": "uint256[]"
        },
        {
          "internalType": "bytes",
          "name": "data",
          "type": "bytes"
        }
      ],
      "name": "safeBatchTransferFrom",
      "outputs": [],
      "stateMutability": "nonpayable",
      "type": "function"
    },
    {
      "inputs": [
        {
          "internalType": "address",
          "name": "from",
          "type": "address"
        },
        {
          "internalType": "address",
          "name": "to",
          "type": "address"
        },
        {
          "internalType": "uint256",
          "name": "id",
          "type": "uint256"
        },
        {
          "internalType": "uint256",
          "name": "value",
          "type": "uint256"
        },
        {
          "internalType": "bytes",
          "name": "data",
          "type": "bytes"
        }
      ],
      "name": "safeTransferFrom",
      "outputs": [],
      "stateMutability": "nonpayable",
      "type": "function"
    },
    {
      "inputs": [
        {
          "internalType": "uint256",
          "name": "id",
          "type": "uint256"
        }
      ],
      "name": "scratch",
      "outputs": [],
      "stateMutability": "nonpayable",
      "type": "function"
    },
    {
      "inputs": [
        {
          "internalType": "address",
          "name": "operator",
          "type": "address"
        },
        {
          "internalType": "bool",
          "name": "approved",
          "type": "bool"
        }
      ],
      "name": "setApprovalForAll",
      "outputs": [],
      "stateMutability": "nonpayable",
      "type": "function"
    },
    {
      "inputs": [
        {
          "internalType": "string",
          "name": "newuri",
          "type": "string"
        }
      ],
      "name": "setURI",
      "outputs": [],
      "stateMutability": "nonpayable",
      "type": "function"
    },
    {
      "inputs": [
        {
          "internalType": "bytes4",
          "name": "interfaceId",
          "type": "bytes4"
        }
      ],
      "name": "supportsInterface",
      "outputs": [
        {
          "internalType": "bool",
          "name": "",
          "type": "bool"
        }
      ],
      "stateMutability": "view",
      "type": "function"
    },
    {
      "inputs": [
        {
          "internalType": "address",
          "name": "newOwner",
          "type": "address"
        }
      ],
      "name": "transferOwnership",
      "outputs": [],
      "stateMutability": "nonpayable",
      "type": "function"
    },
    {
      "inputs": [
        {
          "internalType": "uint256",
          "name": "",
          "type": "uint256"
        }
      ],
      "name": "uri",
      "outputs": [
        {
          "internalType": "string",
          "name": "",
          "type": "string"
        }
      ],
      "stateMutability": "view",
      "type": "function"
    }
  ],
  "bytecode": "0x6080604052600060045560016005556000600655620186a06007553480156200002757600080fd5b5060405162001ad738038062001ad78339810160408190526200004a916200010d565b60408051602081019091526000815281906200006681620000a9565b506001600160a01b0381166200009657604051631e4fbdf760e01b81526000600482015260240160405180910390fd5b620000a181620000bb565b5050620002b0565b6002620000b78282620001e4565b5050565b600380546001600160a01b038381166001600160a01b0319831681179093556040519116919082907f8be0079c531659141344cd1fd0a4f28419497f9722a3daafe3b4186f6b6457e090600090a35050565b6000602082840312156200012057600080fd5b81516001600160a01b03811681146200013857600080fd5b9392505050565b634e487b7160e01b600052604160045260246000fd5b600181811c908216806200016a57607f821691505b6020821081036200018b57634e487b7160e01b600052602260045260246000fd5b50919050565b601f821115620001df57600081815260208120601f850160051c81016020861015620001ba5750805b601f850160051c820191505b81811015620001db57828155600101620001c6565b5050505b505050565b81516001600160401b038111156200020057620002006200013f565b620002188162000211845462000155565b8462000191565b602080601f831160018114620002505760008415620002375750858301515b600019600386901b1c1916600185901b178555620001db565b600085815260208120601f198616915b82811015620002815788860151825594840194600190910190840162000260565b5085821015620002a05787850151600019600388901b60f8161c191681555b5050505050600190811b01905550565b61181780620002c06000396000f3fe6080604052600436106100f25760003560e01c8063530c3dae1161008a578063e676a77511610059578063e676a775146102c3578063e985e9c5146102cb578063f242432a146102eb578063f2fde38b1461030b57600080fd5b8063530c3dae14610236578063715018a6146102665780638da5cb5b1461027b578063a22cb465146102a357600080fd5b80631f7fdffa116100c65780631f7fdffa146101a95780632eb2c2d6146101c957806337a6096a146101e95780634e1273f41461020957600080fd5b8062fdd58e146100f757806301ffc9a71461012a57806302fe53051461015a5780630e89341c1461017c575b600080fd5b34801561010357600080fd5b50610117610112366004610f8a565b61032b565b6040519081526020015b60405180910390f35b34801561013657600080fd5b5061014a610145366004610fca565b610353565b6040519015158152602001610121565b34801561016657600080fd5b5061017a61017536600461108d565b6103a3565b005b34801561018857600080fd5b5061019c6101973660046110de565b6103b7565b604051610121919061113d565b3480156101b557600080fd5b5061017a6101c43660046111ff565b61044b565b3480156101d557600080fd5b5061017a6101e4366004611298565b610465565b3480156101f557600080fd5b5061017a6102043660046110de565b6104d1565b34801561021557600080fd5b50610229610224366004611342565b6105b8565b604051610121919061143d565b34801561024257600080fd5b5061014a6102513660046110de565b60009081526008602052604090205460ff1690565b34801561027257600080fd5b5061017a61068d565b34801561028757600080fd5b506003546040516001600160a01b039091168152602001610121565b3480156102af57600080fd5b5061017a6102be366004611450565b6106a1565b61017a6106b0565b3480156102d757600080fd5b5061014a6102e636600461148c565b610772565b3480156102f757600080fd5b5061017a6103063660046114bf565b6107a0565b34801561031757600080fd5b5061017a610326366004611524565b6107ff565b6000818152602081815260408083206001600160a01b03861684529091529020545b92915050565b60006001600160e01b03198216636cdb3d1360e11b148061038457506001600160e01b031982166303a24d0760e21b145b8061034d57506301ffc9a760e01b6001600160e01b031983161461034d565b6103ab61083a565b6103b481610867565b50565b6060600280546103c69061153f565b80601f01602080910402602001604051908101604052809291908181526020018280546103f29061153f565b801561043f5780601f106104145761010080835404028352916020019161043f565b820191906000526020600020905b81548152906001019060200180831161042257829003601f168201915b50505050509050919050565b61045361083a565b61045f84848484610873565b50505050565b336001600160a01b038616811480159061048657506104848682610772565b155b156104bc5760405163711bec9160e11b81526001600160a01b038083166004830152871660248201526044015b60405180910390fd5b6104c986868686866108ab565b505050505050565b60008181526008602052604090205460ff16156105305760405162461bcd60e51b815260206004820152601a60248201527f416c7265616479207363726174636865642074686973206f6e6500000000000060448201526064016104b3565b61053a338261032b565b6001146105895760405162461bcd60e51b815260206004820152601a60248201527f4e6f7420746865206f776e6572206f662073637261746368657200000000000060448201526064016104b3565b6000818152600860205260408120805460ff1916600117905560068054916105b08361158f565b919050555050565b606081518351146105e95781518351604051635b05999160e01b8152600481019290925260248201526044016104b3565b6000835167ffffffffffffffff81111561060557610605610fee565b60405190808252806020026020018201604052801561062e578160200160208202803683370190505b50905060005b8451811015610685576020808202860101516106589060208084028701015161032b565b82828151811061066a5761066a6115a6565b602090810291909101015261067e816115bc565b9050610634565b509392505050565b61069561083a565b61069f6000610912565b565b6106ac338383610964565b5050565b6007543410156106fa5760405162461bcd60e51b8152602060048201526015602482015274139bdd08195b9bdd59da08199d5b991cc81cd95b9d605a1b60448201526064016104b3565b610718336005546001604051806020016040528060008152506109fa565b600580546000908152600860205260408120805460ff191690558154919061073f836115bc565b909155505060068054906000610754836115bc565b9190505550346004600082825461076b91906115d5565b9091555050565b6001600160a01b03918216600090815260016020908152604080832093909416825291909152205460ff1690565b336001600160a01b03861681148015906107c157506107bf8682610772565b155b156107f25760405163711bec9160e11b81526001600160a01b038083166004830152871660248201526044016104b3565b6104c98686868686610a06565b61080761083a565b6001600160a01b03811661083157604051631e4fbdf760e01b8152600060048201526024016104b3565b6103b481610912565b6003546001600160a01b0316331461069f5760405163118cdaa760e01b81523360048201526024016104b3565b60026106ac8282611633565b6001600160a01b03841661089d57604051632bfa23e760e11b8152600060048201526024016104b3565b61045f600085858585610a94565b6001600160a01b0384166108d557604051632bfa23e760e11b8152600060048201526024016104b3565b6001600160a01b0385166108fe57604051626a0d4560e21b8152600060048201526024016104b3565b61090b8585858585610a94565b5050505050565b600380546001600160a01b038381166001600160a01b0319831681179093556040519116919082907f8be0079c531659141344cd1fd0a4f28419497f9722a3daafe3b4186f6b6457e090600090a35050565b6001600160a01b03821661098d5760405162ced3e160e81b8152600060048201526024016104b3565b6001600160a01b03838116600081815260016020908152604080832094871680845294825291829020805460ff191686151590811790915591519182527f17307eab39ab6107e8899845ad3d59bd9653f200f220920489ca2b5937696c31910160405180910390a3505050565b61045f84848484610ae7565b6001600160a01b038416610a3057604051632bfa23e760e11b8152600060048201526024016104b3565b6001600160a01b038516610a5957604051626a0d4560e21b8152600060048201526024016104b3565b60408051600180825260208201869052818301908152606082018590526080820190925290610a8b8787848487610a94565b50505050505050565b610aa085858585610b44565b6001600160a01b0384161561090b5782513390600103610ad95760208481015190840151610ad2838989858589610d61565b50506104c9565b6104c9818787878787610e85565b6001600160a01b038416610b1157604051632bfa23e760e11b8152600060048201526024016104b3565b604080516001808252602082018690528183019081526060820185905260808201909252906104c9600087848487610a94565b8051825114610b735781518151604051635b05999160e01b8152600481019290925260248201526044016104b3565b3360005b8351811015610c82576020818102858101820151908501909101516001600160a01b03881615610c2a576000828152602081815260408083206001600160a01b038c16845290915290205481811015610c03576040516303dee4c560e01b81526001600160a01b038a1660048201526024810182905260448101839052606481018490526084016104b3565b6000838152602081815260408083206001600160a01b038d16845290915290209082900390555b6001600160a01b03871615610c6f576000828152602081815260408083206001600160a01b038b16845290915281208054839290610c699084906115d5565b90915550505b505080610c7b906115bc565b9050610b77565b508251600103610d035760208301516000906020840151909150856001600160a01b0316876001600160a01b0316846001600160a01b03167fc3d58168c5ae7397731d063d5bbf3d657854427343f4c083240f7aacaa2d0f628585604051610cf4929190918252602082015260400190565b60405180910390a4505061090b565b836001600160a01b0316856001600160a01b0316826001600160a01b03167f4a39dc06d4c0dbc64b70af90fd698a233a518aa5d07e595d983b8c0526c8f7fb8686604051610d529291906116f3565b60405180910390a45050505050565b6001600160a01b0384163b156104c95760405163f23a6e6160e01b81526001600160a01b0385169063f23a6e6190610da59089908990889088908890600401611721565b6020604051808303816000875af1925050508015610de0575060408051601f3d908101601f19168201909252610ddd91810190611766565b60015b610e49573d808015610e0e576040519150601f19603f3d011682016040523d82523d6000602084013e610e13565b606091505b508051600003610e4157604051632bfa23e760e11b81526001600160a01b03861660048201526024016104b3565b805181602001fd5b6001600160e01b0319811663f23a6e6160e01b14610a8b57604051632bfa23e760e11b81526001600160a01b03861660048201526024016104b3565b6001600160a01b0384163b156104c95760405163bc197c8160e01b81526001600160a01b0385169063bc197c8190610ec99089908990889088908890600401611783565b6020604051808303816000875af1925050508015610f04575060408051601f3d908101601f19168201909252610f0191810190611766565b60015b610f32573d808015610e0e576040519150601f19603f3d011682016040523d82523d6000602084013e610e13565b6001600160e01b0319811663bc197c8160e01b14610a8b57604051632bfa23e760e11b81526001600160a01b03861660048201526024016104b3565b80356001600160a01b0381168114610f8557600080fd5b919050565b60008060408385031215610f9d57600080fd5b610fa683610f6e565b946020939093013593505050565b6001600160e01b0319811681146103b457600080fd5b600060208284031215610fdc57600080fd5b8135610fe781610fb4565b9392505050565b634e487b7160e01b600052604160045260246000fd5b604051601f8201601f1916810167ffffffffffffffff8111828210171561102d5761102d610fee565b604052919050565b600067ffffffffffffffff83111561104f5761104f610fee565b611062601f8401601f1916602001611004565b905082815283838301111561107657600080fd5b828260208301376000602084830101529392505050565b60006020828403121561109f57600080fd5b813567ffffffffffffffff8111156110b657600080fd5b8201601f810184136110c757600080fd5b6110d684823560208401611035565b949350505050565b6000602082840312156110f057600080fd5b5035919050565b6000815180845260005b8181101561111d57602081850181015186830182015201611101565b506000602082860101526020601f19601f83011685010191505092915050565b602081526000610fe760208301846110f7565b600067ffffffffffffffff82111561116a5761116a610fee565b5060051b60200190565b600082601f83011261118557600080fd5b8135602061119a61119583611150565b611004565b82815260059290921b840181019181810190868411156111b957600080fd5b8286015b848110156111d457803583529183019183016111bd565b509695505050505050565b600082601f8301126111f057600080fd5b610fe783833560208501611035565b6000806000806080858703121561121557600080fd5b61121e85610f6e565b9350602085013567ffffffffffffffff8082111561123b57600080fd5b61124788838901611174565b9450604087013591508082111561125d57600080fd5b61126988838901611174565b9350606087013591508082111561127f57600080fd5b5061128c878288016111df565b91505092959194509250565b600080600080600060a086880312156112b057600080fd5b6112b986610f6e565b94506112c760208701610f6e565b9350604086013567ffffffffffffffff808211156112e457600080fd5b6112f089838a01611174565b9450606088013591508082111561130657600080fd5b61131289838a01611174565b9350608088013591508082111561132857600080fd5b50611335888289016111df565b9150509295509295909350565b6000806040838503121561135557600080fd5b823567ffffffffffffffff8082111561136d57600080fd5b818501915085601f83011261138157600080fd5b8135602061139161119583611150565b82815260059290921b840181019181810190898411156113b057600080fd5b948201945b838610156113d5576113c686610f6e565b825294820194908201906113b5565b965050860135925050808211156113eb57600080fd5b506113f885828601611174565b9150509250929050565b600081518084526020808501945080840160005b8381101561143257815187529582019590820190600101611416565b509495945050505050565b602081526000610fe76020830184611402565b6000806040838503121561146357600080fd5b61146c83610f6e565b91506020830135801515811461148157600080fd5b809150509250929050565b6000806040838503121561149f57600080fd5b6114a883610f6e565b91506114b660208401610f6e565b90509250929050565b600080600080600060a086880312156114d757600080fd5b6114e086610f6e565b94506114ee60208701610f6e565b93506040860135925060608601359150608086013567ffffffffffffffff81111561151857600080fd5b611335888289016111df565b60006020828403121561153657600080fd5b610fe782610f6e565b600181811c9082168061155357607f821691505b60208210810361157357634e487b7160e01b600052602260045260246000fd5b50919050565b634e487b7160e01b600052601160045260246000fd5b60008161159e5761159e611579565b506000190190565b634e487b7160e01b600052603260045260246000fd5b6000600182016115ce576115ce611579565b5060010190565b8082018082111561034d5761034d611579565b601f82111561162e57600081815260208120601f850160051c8101602086101561160f5750805b601f850160051c820191505b818110156104c95782815560010161161b565b505050565b815167ffffffffffffffff81111561164d5761164d610fee565b6116618161165b845461153f565b846115e8565b602080601f831160018114611696576000841561167e5750858301515b600019600386901b1c1916600185901b1785556104c9565b600085815260208120601f198616915b828110156116c5578886015182559484019460019091019084016116a6565b50858210156116e35787850151600019600388901b60f8161c191681555b5050505050600190811b01905550565b6040815260006117066040830185611402565b82810360208401526117188185611402565b95945050505050565b6001600160a01b03868116825285166020820152604081018490526060810183905260a06080820181905260009061175b908301846110f7565b979650505050505050565b60006020828403121561177857600080fd5b8151610fe781610fb4565b6001600160a01b0386811682528516602082015260a0604082018190526000906117af90830186611402565b82810360608401526117c18186611402565b905082810360808401526117d581856110f7565b9897505050505050505056fea26469706673582212205ca493c3ea440ff4f8dd8a2bdbb5a8b1e8e37612e6cf9e7782107386ffc4e80264736f6c63430008140033",
  "linkReferences": {},
  "deployedLinkReferences": {}
}